{
  "contractName": "Montly",
  "abi": [
    {
      "inputs": [],
      "stateMutability": "nonpayable",
      "type": "constructor"
    },
    {
      "inputs": [],
      "name": "admin",
      "outputs": [
        {
          "internalType": "address",
          "name": "",
          "type": "address"
        }
      ],
      "stateMutability": "view",
      "type": "function",
      "constant": true
    },
    {
      "inputs": [
        {
          "internalType": "address",
          "name": "",
          "type": "address"
        }
      ],
      "name": "lastPayment",
      "outputs": [
        {
          "internalType": "uint256",
          "name": "",
          "type": "uint256"
        }
      ],
      "stateMutability": "view",
      "type": "function",
      "constant": true
    },
    {
      "inputs": [],
      "name": "makePayment",
      "outputs": [],
      "stateMutability": "payable",
      "type": "function",
      "payable": true
    },
    {
      "inputs": [],
      "name": "retrievePayment",
      "outputs": [],
      "stateMutability": "nonpayable",
      "type": "function"
    }
  ],
  "bytecode": "0x608060405234801561001057600080fd5b5033600160006101000a81548173ffffffffffffffffffffffffffffffffffffffff021916908373ffffffffffffffffffffffffffffffffffffffff16021790555061061e806100616000396000f3fe60806040526004361061003f5760003560e01c806340fd0c2314610044578063a47ff7b914610081578063d8d7970014610098578063f851a440146100a2575b600080fd5b34801561005057600080fd5b5061006b60048036038101906100669190610316565b6100cd565b60405161007891906104e4565b60405180910390f35b34801561008d57600080fd5b506100966100e5565b005b6100a06101be565b005b3480156100ae57600080fd5b506100b76102db565b6040516100c49190610469565b60405180910390f35b60006020528060005260406000206000915090505481565b3373ffffffffffffffffffffffffffffffffffffffff16600160009054906101000a900473ffffffffffffffffffffffffffffffffffffffff1673ffffffffffffffffffffffffffffffffffffffff1614610175576040517f08c379a000000000000000000000000000000000000000000000000000000000815260040161016c90610484565b60405180910390fd5b3373ffffffffffffffffffffffffffffffffffffffff166108fc479081150290604051600060405180830381858888f193505050501580156101bb573d6000803e3d6000fd5b50565b60146000803373ffffffffffffffffffffffffffffffffffffffff1673ffffffffffffffffffffffffffffffffffffffff168152602001908152602001600020546102099190610510565b42101561024b576040517f08c379a0000000000000000000000000000000000000000000000000000000008152600401610242906104a4565b60405180910390fd5b67016345785d8a0000341015610296576040517f08c379a000000000000000000000000000000000000000000000000000000000815260040161028d906104c4565b60405180910390fd5b426000803373ffffffffffffffffffffffffffffffffffffffff1673ffffffffffffffffffffffffffffffffffffffff16815260200190815260200160002081905550565b600160009054906101000a900473ffffffffffffffffffffffffffffffffffffffff1681565b600081359050610310816105d1565b92915050565b60006020828403121561032857600080fd5b600061033684828501610301565b91505092915050565b61034881610566565b82525050565b600061035b6041836104ff565b91507f796f75206d7573742062652061646d696e20746f20726574726965766520616c60008301527f6c20746865207061796d656e74732066726f6d207468697320636f6e7472616360208301527f74000000000000000000000000000000000000000000000000000000000000006040830152606082019050919050565b60006103e7600c836104ff565b91507f416c7265616479207061696400000000000000000000000000000000000000006000830152602082019050919050565b6000610427601b836104ff565b91507f56616c7565206d75737420626520302e31206f722068696768657200000000006000830152602082019050919050565b61046381610598565b82525050565b600060208201905061047e600083018461033f565b92915050565b6000602082019050818103600083015261049d8161034e565b9050919050565b600060208201905081810360008301526104bd816103da565b9050919050565b600060208201905081810360008301526104dd8161041a565b9050919050565b60006020820190506104f9600083018461045a565b92915050565b600082825260208201905092915050565b600061051b82610598565b915061052683610598565b9250827fffffffffffffffffffffffffffffffffffffffffffffffffffffffffffffffff0382111561055b5761055a6105a2565b5b828201905092915050565b600061057182610578565b9050919050565b600073ffffffffffffffffffffffffffffffffffffffff82169050919050565b6000819050919050565b7f4e487b7100000000000000000000000000000000000000000000000000000000600052601160045260246000fd5b6105da81610566565b81146105e557600080fd5b5056fea2646970667358221220e7778a0da6715c2e721bf58237a89d7cf85557ccb55fdf86957da09041209f9f64736f6c63430008000033",
  "immutableReferences": {},
  "source": "// SPDX-License-Identifier: MIT\npragma solidity >=0.4.22 <0.9.0;\n\ncontract Montly {\n    mapping(address => uint256) public lastPayment;\n    address public admin;\n\n    constructor() {\n        admin = msg.sender;\n    }\n\n    function makePayment() external payable {\n        require(\n            block.timestamp >= lastPayment[msg.sender] + 20 seconds,\n            // lastPayment[msg.sender] <= block.timestamp - 20 seconds,\n            \"Already paid\"\n        );\n        require(msg.value >= 0.1 ether, \"Value must be 0.1 or higher\");\n        lastPayment[msg.sender] = block.timestamp;\n    }\n\n    function retrievePayment() external {\n        require(\n            admin == msg.sender,\n            \"you must be admin to retrieve all the payments from this contract\"\n        );\n\n        payable(msg.sender).transfer(address(this).balance);\n    }\n}\n",
  "sourcePath": "/Volumes/APPLE HDD/reactprojects/payments/contracts/Montly.sol",
  "compiler": {
    "name": "solc",
    "version": "0.8.0+commit.c7dfd78e.Emscripten.clang"
  },
  "schemaVersion": "3.4.3",
  "updatedAt": "2021-10-04T14:58:25.792Z",
  "networkType": "ethereum",
  "devdoc": {
    "kind": "dev",
    "methods": {},
    "version": 1
  },
  "userdoc": {
    "kind": "user",
    "methods": {},
    "version": 1
  }
}