{
  "contractName": "Payments",
  "abi": [
    {
      "inputs": [],
      "stateMutability": "nonpayable",
      "type": "constructor"
    },
    {
      "anonymous": false,
      "inputs": [
        {
          "indexed": true,
          "internalType": "address",
          "name": "owner",
          "type": "address"
        },
        {
          "indexed": true,
          "internalType": "address",
          "name": "spender",
          "type": "address"
        },
        {
          "indexed": false,
          "internalType": "uint256",
          "name": "value",
          "type": "uint256"
        }
      ],
      "name": "Approval",
      "type": "event"
    },
    {
      "anonymous": false,
      "inputs": [
        {
          "indexed": true,
          "internalType": "address",
          "name": "from",
          "type": "address"
        },
        {
          "indexed": true,
          "internalType": "address",
          "name": "to",
          "type": "address"
        },
        {
          "indexed": false,
          "internalType": "uint256",
          "name": "value",
          "type": "uint256"
        }
      ],
      "name": "Transfer",
      "type": "event"
    },
    {
      "inputs": [],
      "name": "admin",
      "outputs": [
        {
          "internalType": "address",
          "name": "",
          "type": "address"
        }
      ],
      "stateMutability": "view",
      "type": "function"
    },
    {
      "inputs": [
        {
          "internalType": "address",
          "name": "owner",
          "type": "address"
        },
        {
          "internalType": "address",
          "name": "spender",
          "type": "address"
        }
      ],
      "name": "allowance",
      "outputs": [
        {
          "internalType": "uint256",
          "name": "",
          "type": "uint256"
        }
      ],
      "stateMutability": "view",
      "type": "function"
    },
    {
      "inputs": [
        {
          "internalType": "address",
          "name": "spender",
          "type": "address"
        },
        {
          "internalType": "uint256",
          "name": "amount",
          "type": "uint256"
        }
      ],
      "name": "approve",
      "outputs": [
        {
          "internalType": "bool",
          "name": "",
          "type": "bool"
        }
      ],
      "stateMutability": "nonpayable",
      "type": "function"
    },
    {
      "inputs": [
        {
          "internalType": "address",
          "name": "account",
          "type": "address"
        }
      ],
      "name": "balanceOf",
      "outputs": [
        {
          "internalType": "uint256",
          "name": "",
          "type": "uint256"
        }
      ],
      "stateMutability": "view",
      "type": "function"
    },
    {
      "inputs": [
        {
          "internalType": "address",
          "name": "",
          "type": "address"
        }
      ],
      "name": "dateBegin",
      "outputs": [
        {
          "internalType": "uint256",
          "name": "",
          "type": "uint256"
        }
      ],
      "stateMutability": "view",
      "type": "function"
    },
    {
      "inputs": [],
      "name": "decimals",
      "outputs": [
        {
          "internalType": "uint8",
          "name": "",
          "type": "uint8"
        }
      ],
      "stateMutability": "view",
      "type": "function"
    },
    {
      "inputs": [
        {
          "internalType": "address",
          "name": "spender",
          "type": "address"
        },
        {
          "internalType": "uint256",
          "name": "subtractedValue",
          "type": "uint256"
        }
      ],
      "name": "decreaseAllowance",
      "outputs": [
        {
          "internalType": "bool",
          "name": "",
          "type": "bool"
        }
      ],
      "stateMutability": "nonpayable",
      "type": "function"
    },
    {
      "inputs": [
        {
          "internalType": "address",
          "name": "spender",
          "type": "address"
        },
        {
          "internalType": "uint256",
          "name": "addedValue",
          "type": "uint256"
        }
      ],
      "name": "increaseAllowance",
      "outputs": [
        {
          "internalType": "bool",
          "name": "",
          "type": "bool"
        }
      ],
      "stateMutability": "nonpayable",
      "type": "function"
    },
    {
      "inputs": [],
      "name": "name",
      "outputs": [
        {
          "internalType": "string",
          "name": "",
          "type": "string"
        }
      ],
      "stateMutability": "view",
      "type": "function"
    },
    {
      "inputs": [
        {
          "internalType": "address",
          "name": "",
          "type": "address"
        }
      ],
      "name": "personSalary",
      "outputs": [
        {
          "internalType": "uint256",
          "name": "",
          "type": "uint256"
        }
      ],
      "stateMutability": "view",
      "type": "function"
    },
    {
      "inputs": [],
      "name": "symbol",
      "outputs": [
        {
          "internalType": "string",
          "name": "",
          "type": "string"
        }
      ],
      "stateMutability": "view",
      "type": "function"
    },
    {
      "inputs": [],
      "name": "totalSupply",
      "outputs": [
        {
          "internalType": "uint256",
          "name": "",
          "type": "uint256"
        }
      ],
      "stateMutability": "view",
      "type": "function"
    },
    {
      "inputs": [
        {
          "internalType": "address",
          "name": "recipient",
          "type": "address"
        },
        {
          "internalType": "uint256",
          "name": "amount",
          "type": "uint256"
        }
      ],
      "name": "transfer",
      "outputs": [
        {
          "internalType": "bool",
          "name": "",
          "type": "bool"
        }
      ],
      "stateMutability": "nonpayable",
      "type": "function"
    },
    {
      "inputs": [
        {
          "internalType": "address",
          "name": "sender",
          "type": "address"
        },
        {
          "internalType": "address",
          "name": "recipient",
          "type": "address"
        },
        {
          "internalType": "uint256",
          "name": "amount",
          "type": "uint256"
        }
      ],
      "name": "transferFrom",
      "outputs": [
        {
          "internalType": "bool",
          "name": "",
          "type": "bool"
        }
      ],
      "stateMutability": "nonpayable",
      "type": "function"
    },
    {
      "inputs": [
        {
          "internalType": "address",
          "name": "_address",
          "type": "address"
        }
      ],
      "name": "createPerson",
      "outputs": [],
      "stateMutability": "nonpayable",
      "type": "function"
    },
    {
      "inputs": [],
      "name": "retrieveSalary",
      "outputs": [],
      "stateMutability": "nonpayable",
      "type": "function"
    },
    {
      "inputs": [
        {
          "internalType": "uint256",
          "name": "hourPerDay",
          "type": "uint256"
        },
        {
          "internalType": "uint256",
          "name": "daysOfWorkPerWeek",
          "type": "uint256"
        }
      ],
      "name": "calculateHourRate",
      "outputs": [
        {
          "internalType": "uint256",
          "name": "",
          "type": "uint256"
        }
      ],
      "stateMutability": "view",
      "type": "function"
    },
    {
      "inputs": [
        {
          "internalType": "uint256",
          "name": "amount",
          "type": "uint256"
        }
      ],
      "name": "calculateFee",
      "outputs": [
        {
          "internalType": "uint256",
          "name": "",
          "type": "uint256"
        }
      ],
      "stateMutability": "pure",
      "type": "function"
    }
  ],
  "bytecode": "0x60806040523480156200001157600080fd5b506040518060400160405280600d81526020017f436f6d70616e7920546f6b656e000000000000000000000000000000000000008152506040518060400160405280600481526020017f434f544f00000000000000000000000000000000000000000000000000000000815250816003908051906020019062000096929190620000f9565b508060049080519060200190620000af929190620000f9565b50505033600560006101000a81548173ffffffffffffffffffffffffffffffffffffffff021916908373ffffffffffffffffffffffffffffffffffffffff1602179055506200020e565b8280546200010790620001a9565b90600052602060002090601f0160209004810192826200012b576000855562000177565b82601f106200014657805160ff191683800117855562000177565b8280016001018555821562000177579182015b828111156200017657825182559160200191906001019062000159565b5b5090506200018691906200018a565b5090565b5b80821115620001a55760008160009055506001016200018b565b5090565b60006002820490506001821680620001c257607f821691505b60208210811415620001d957620001d8620001df565b5b50919050565b7f4e487b7100000000000000000000000000000000000000000000000000000000600052602260045260246000fd5b611a55806200021e6000396000f3fe608060405234801561001057600080fd5b50600436106101165760003560e01c806370a08231116100a2578063a31039bc11610071578063a31039bc1461031d578063a457c2d714610339578063a9059cbb14610369578063dd62ed3e14610399578063f851a440146103c957610116565b806370a082311461026f5780637afd81311461029f57806395d89b41146102cf57806399a5d747146102ed57610116565b806323b872dd116100e957806323b872dd146101b7578063313ce567146101e7578063395093511461020557806342f79b2f14610235578063491963881461023f57610116565b806306fdde031461011b578063095ea7b31461013957806309bb08f91461016957806318160ddd14610199575b600080fd5b6101236103e7565b6040516101309190611624565b60405180910390f35b610153600480360381019061014e919061118e565b610479565b6040516101609190611609565b60405180910390f35b610183600480360381019061017e91906111f3565b610497565b6040516101909190611766565b60405180910390f35b6101a1610508565b6040516101ae9190611766565b60405180910390f35b6101d160048036038101906101cc919061113f565b610512565b6040516101de9190611609565b60405180910390f35b6101ef61060a565b6040516101fc9190611781565b60405180910390f35b61021f600480360381019061021a919061118e565b610613565b60405161022c9190611609565b60405180910390f35b61023d6106bf565b005b610259600480360381019061025491906110da565b610720565b6040516102669190611766565b60405180910390f35b610289600480360381019061028491906110da565b610738565b6040516102969190611766565b60405180910390f35b6102b960048036038101906102b491906110da565b610780565b6040516102c69190611766565b60405180910390f35b6102d7610798565b6040516102e49190611624565b60405180910390f35b610307600480360381019061030291906111ca565b61082a565b6040516103149190611766565b60405180910390f35b610337600480360381019061033291906110da565b6108a7565b005b610353600480360381019061034e919061118e565b61093c565b6040516103609190611609565b60405180910390f35b610383600480360381019061037e919061118e565b610a27565b6040516103909190611609565b60405180910390f35b6103b360048036038101906103ae9190611103565b610a45565b6040516103c09190611766565b60405180910390f35b6103d1610acc565b6040516103de91906115ee565b60405180910390f35b6060600380546103f690611921565b80601f016020809104026020016040519081016040528092919081815260200182805461042290611921565b801561046f5780601f106104445761010080835404028352916020019161046f565b820191906000526020600020905b81548152906001019060200180831161045257829003601f168201915b5050505050905090565b600061048d610486610af2565b8484610afa565b6001905092915050565b600080600660003373ffffffffffffffffffffffffffffffffffffffff1673ffffffffffffffffffffffffffffffffffffffff168152602001908152602001600020549050603483856104ea919061183f565b6104f4919061183f565b816104ff919061180e565b91505092915050565b6000600254905090565b600061051f848484610cc5565b6000600160008673ffffffffffffffffffffffffffffffffffffffff1673ffffffffffffffffffffffffffffffffffffffff168152602001908152602001600020600061056a610af2565b73ffffffffffffffffffffffffffffffffffffffff1673ffffffffffffffffffffffffffffffffffffffff168152602001908152602001600020549050828110156105ea576040517f08c379a00000000000000000000000000000000000000000000000000000000081526004016105e1906116c6565b60405180910390fd5b6105fe856105f6610af2565b858403610afa565b60019150509392505050565b60006012905090565b60006106b5610620610af2565b84846001600061062e610af2565b73ffffffffffffffffffffffffffffffffffffffff1673ffffffffffffffffffffffffffffffffffffffff16815260200190815260200160002060008873ffffffffffffffffffffffffffffffffffffffff1673ffffffffffffffffffffffffffffffffffffffff168152602001908152602001600020546106b091906117b8565b610afa565b6001905092915050565b6000600660003373ffffffffffffffffffffffffffffffffffffffff1673ffffffffffffffffffffffffffffffffffffffff1681526020019081526020016000205490506000610710600580610497565b905061071c3383610f46565b5050565b60066020528060005260406000206000915090505481565b60008060008373ffffffffffffffffffffffffffffffffffffffff1673ffffffffffffffffffffffffffffffffffffffff168152602001908152602001600020549050919050565b60076020528060005260406000206000915090505481565b6060600480546107a790611921565b80601f01602080910402602001604051908101604052809291908181526020018280546107d390611921565b80156108205780601f106107f557610100808354040283529160200191610820565b820191906000526020600020905b81548152906001019060200180831161080357829003601f168201915b5050505050905090565b600081612710808461083c919061180e565b610846919061183f565b14610886576040517f08c379a000000000000000000000000000000000000000000000000000000000815260040161087d90611686565b60405180910390fd5b61271060b983610896919061183f565b6108a0919061180e565b9050919050565b69152d02c7e14af6800000600660008373ffffffffffffffffffffffffffffffffffffffff1673ffffffffffffffffffffffffffffffffffffffff1681526020019081526020016000208190555042600760008373ffffffffffffffffffffffffffffffffffffffff1673ffffffffffffffffffffffffffffffffffffffff1681526020019081526020016000208190555050565b6000806001600061094b610af2565b73ffffffffffffffffffffffffffffffffffffffff1673ffffffffffffffffffffffffffffffffffffffff16815260200190815260200160002060008573ffffffffffffffffffffffffffffffffffffffff1673ffffffffffffffffffffffffffffffffffffffff16815260200190815260200160002054905082811015610a08576040517f08c379a00000000000000000000000000000000000000000000000000000000081526004016109ff90611726565b60405180910390fd5b610a1c610a13610af2565b85858403610afa565b600191505092915050565b6000610a3b610a34610af2565b8484610cc5565b6001905092915050565b6000600160008473ffffffffffffffffffffffffffffffffffffffff1673ffffffffffffffffffffffffffffffffffffffff16815260200190815260200160002060008373ffffffffffffffffffffffffffffffffffffffff1673ffffffffffffffffffffffffffffffffffffffff16815260200190815260200160002054905092915050565b600560009054906101000a900473ffffffffffffffffffffffffffffffffffffffff1681565b600033905090565b600073ffffffffffffffffffffffffffffffffffffffff168373ffffffffffffffffffffffffffffffffffffffff161415610b6a576040517f08c379a0000000000000000000000000000000000000000000000000000000008152600401610b6190611706565b60405180910390fd5b600073ffffffffffffffffffffffffffffffffffffffff168273ffffffffffffffffffffffffffffffffffffffff161415610bda576040517f08c379a0000000000000000000000000000000000000000000000000000000008152600401610bd190611666565b60405180910390fd5b80600160008573ffffffffffffffffffffffffffffffffffffffff1673ffffffffffffffffffffffffffffffffffffffff16815260200190815260200160002060008473ffffffffffffffffffffffffffffffffffffffff1673ffffffffffffffffffffffffffffffffffffffff168152602001908152602001600020819055508173ffffffffffffffffffffffffffffffffffffffff168373ffffffffffffffffffffffffffffffffffffffff167f8c5be1e5ebec7d5bd14f71427d1e84f3dd0314c0f7b2291e5b200ac8c7c3b92583604051610cb89190611766565b60405180910390a3505050565b600073ffffffffffffffffffffffffffffffffffffffff168373ffffffffffffffffffffffffffffffffffffffff161415610d35576040517f08c379a0000000000000000000000000000000000000000000000000000000008152600401610d2c906116e6565b60405180910390fd5b600073ffffffffffffffffffffffffffffffffffffffff168273ffffffffffffffffffffffffffffffffffffffff161415610da5576040517f08c379a0000000000000000000000000000000000000000000000000000000008152600401610d9c90611646565b60405180910390fd5b610db08383836110a6565b60008060008573ffffffffffffffffffffffffffffffffffffffff1673ffffffffffffffffffffffffffffffffffffffff16815260200190815260200160002054905081811015610e36576040517f08c379a0000000000000000000000000000000000000000000000000000000008152600401610e2d906116a6565b60405180910390fd5b8181036000808673ffffffffffffffffffffffffffffffffffffffff1673ffffffffffffffffffffffffffffffffffffffff16815260200190815260200160002081905550816000808573ffffffffffffffffffffffffffffffffffffffff1673ffffffffffffffffffffffffffffffffffffffff1681526020019081526020016000206000828254610ec991906117b8565b925050819055508273ffffffffffffffffffffffffffffffffffffffff168473ffffffffffffffffffffffffffffffffffffffff167fddf252ad1be2c89b69c2b068fc378daa952ba7f163c4a11628f55a4df523b3ef84604051610f2d9190611766565b60405180910390a3610f408484846110ab565b50505050565b600073ffffffffffffffffffffffffffffffffffffffff168273ffffffffffffffffffffffffffffffffffffffff161415610fb6576040517f08c379a0000000000000000000000000000000000000000000000000000000008152600401610fad90611746565b60405180910390fd5b610fc2600083836110a6565b8060026000828254610fd491906117b8565b92505081905550806000808473ffffffffffffffffffffffffffffffffffffffff1673ffffffffffffffffffffffffffffffffffffffff168152602001908152602001600020600082825461102991906117b8565b925050819055508173ffffffffffffffffffffffffffffffffffffffff16600073ffffffffffffffffffffffffffffffffffffffff167fddf252ad1be2c89b69c2b068fc378daa952ba7f163c4a11628f55a4df523b3ef8360405161108e9190611766565b60405180910390a36110a2600083836110ab565b5050565b505050565b505050565b6000813590506110bf816119f1565b92915050565b6000813590506110d481611a08565b92915050565b6000602082840312156110ec57600080fd5b60006110fa848285016110b0565b91505092915050565b6000806040838503121561111657600080fd5b6000611124858286016110b0565b9250506020611135858286016110b0565b9150509250929050565b60008060006060848603121561115457600080fd5b6000611162868287016110b0565b9350506020611173868287016110b0565b9250506040611184868287016110c5565b9150509250925092565b600080604083850312156111a157600080fd5b60006111af858286016110b0565b92505060206111c0858286016110c5565b9150509250929050565b6000602082840312156111dc57600080fd5b60006111ea848285016110c5565b91505092915050565b6000806040838503121561120657600080fd5b6000611214858286016110c5565b9250506020611225858286016110c5565b9150509250929050565b61123881611899565b82525050565b611247816118ab565b82525050565b60006112588261179c565b61126281856117a7565b93506112728185602086016118ee565b61127b816119e0565b840191505092915050565b60006112936023836117a7565b91507f45524332303a207472616e7366657220746f20746865207a65726f206164647260008301527f65737300000000000000000000000000000000000000000000000000000000006020830152604082019050919050565b60006112f96022836117a7565b91507f45524332303a20617070726f766520746f20746865207a65726f20616464726560008301527f73730000000000000000000000000000000000000000000000000000000000006020830152604082019050919050565b600061135f6009836117a7565b91507f746f6f20736d616c6c00000000000000000000000000000000000000000000006000830152602082019050919050565b600061139f6026836117a7565b91507f45524332303a207472616e7366657220616d6f756e742065786365656473206260008301527f616c616e636500000000000000000000000000000000000000000000000000006020830152604082019050919050565b60006114056028836117a7565b91507f45524332303a207472616e7366657220616d6f756e742065786365656473206160008301527f6c6c6f77616e63650000000000000000000000000000000000000000000000006020830152604082019050919050565b600061146b6025836117a7565b91507f45524332303a207472616e736665722066726f6d20746865207a65726f20616460008301527f64726573730000000000000000000000000000000000000000000000000000006020830152604082019050919050565b60006114d16024836117a7565b91507f45524332303a20617070726f76652066726f6d20746865207a65726f2061646460008301527f72657373000000000000000000000000000000000000000000000000000000006020830152604082019050919050565b60006115376025836117a7565b91507f45524332303a2064656372656173656420616c6c6f77616e63652062656c6f7760008301527f207a65726f0000000000000000000000000000000000000000000000000000006020830152604082019050919050565b600061159d601f836117a7565b91507f45524332303a206d696e7420746f20746865207a65726f2061646472657373006000830152602082019050919050565b6115d9816118d7565b82525050565b6115e8816118e1565b82525050565b6000602082019050611603600083018461122f565b92915050565b600060208201905061161e600083018461123e565b92915050565b6000602082019050818103600083015261163e818461124d565b905092915050565b6000602082019050818103600083015261165f81611286565b9050919050565b6000602082019050818103600083015261167f816112ec565b9050919050565b6000602082019050818103600083015261169f81611352565b9050919050565b600060208201905081810360008301526116bf81611392565b9050919050565b600060208201905081810360008301526116df816113f8565b9050919050565b600060208201905081810360008301526116ff8161145e565b9050919050565b6000602082019050818103600083015261171f816114c4565b9050919050565b6000602082019050818103600083015261173f8161152a565b9050919050565b6000602082019050818103600083015261175f81611590565b9050919050565b600060208201905061177b60008301846115d0565b92915050565b600060208201905061179660008301846115df565b92915050565b600081519050919050565b600082825260208201905092915050565b60006117c3826118d7565b91506117ce836118d7565b9250827fffffffffffffffffffffffffffffffffffffffffffffffffffffffffffffffff0382111561180357611802611953565b5b828201905092915050565b6000611819826118d7565b9150611824836118d7565b92508261183457611833611982565b5b828204905092915050565b600061184a826118d7565b9150611855836118d7565b9250817fffffffffffffffffffffffffffffffffffffffffffffffffffffffffffffffff048311821515161561188e5761188d611953565b5b828202905092915050565b60006118a4826118b7565b9050919050565b60008115159050919050565b600073ffffffffffffffffffffffffffffffffffffffff82169050919050565b6000819050919050565b600060ff82169050919050565b60005b8381101561190c5780820151818401526020810190506118f1565b8381111561191b576000848401525b50505050565b6000600282049050600182168061193957607f821691505b6020821081141561194d5761194c6119b1565b5b50919050565b7f4e487b7100000000000000000000000000000000000000000000000000000000600052601160045260246000fd5b7f4e487b7100000000000000000000000000000000000000000000000000000000600052601260045260246000fd5b7f4e487b7100000000000000000000000000000000000000000000000000000000600052602260045260246000fd5b6000601f19601f8301169050919050565b6119fa81611899565b8114611a0557600080fd5b50565b611a11816118d7565b8114611a1c57600080fd5b5056fea264697066735822122084c3821bb32a12129147feb9f6d684973d1f8d8a079cdb32d7fecbc6daf7182d64736f6c63430008000033",
  "immutableReferences": {},
  "source": "// SPDX-License-Identifier: MIT\npragma solidity >=0.4.22 <0.9.0;\n\nimport \"@openzeppelin/contracts/token/ERC20/ERC20.sol\";\n\ncontract Payments is ERC20 {\n    address public admin;\n    mapping(address => uint256) public personSalary;\n    mapping(address => uint256) public dateBegin;\n\n    constructor() ERC20(\"Company Token\", \"COTO\") {\n        admin = msg.sender;\n    }\n\n    function createPerson(address _address) external {\n        personSalary[_address] = 100_000 ether;\n        dateBegin[_address] = block.timestamp;\n    }\n\n    function retrieveSalary() external {\n        uint256 salary = personSalary[msg.sender];\n        uint256 hourly = calculateHourRate(5, 5);\n        _mint(msg.sender, salary);\n    }\n\n    // hours of work * hours per week * numbers of weeks\n    // in a year, then divide for the anual salary\n    // (8*7*52) / 100_000\n\n    function calculateHourRate(uint256 hourPerDay, uint256 daysOfWorkPerWeek)\n        public\n        view\n        returns (uint256)\n    {\n        uint256 SALARY_ANUAL = personSalary[msg.sender];\n        return SALARY_ANUAL / (hourPerDay * daysOfWorkPerWeek * 52);\n    }\n\n    //185 basis points = 1.85 pct\n    function calculateFee(uint256 amount) external pure returns (uint256) {\n        require((amount / 10000) * 10000 == amount, \"too small\");\n\n        return (amount * 185) / 10000;\n    }\n}\n\n// First, determine the total number of hours worked by multiplying the hours per week by the number of weeks in a year (52). Next, divide this number from the annual salary. For example, if an employee has a salary of $50,000 and works 40 hours per week, the hourly rate is $50,000/2,080 (40 x 52) = $24.04.\n// function calculateHourRate(uint256 hourPerDay, uint256 daysOfWorkPerWeek)\n//     external\n//     pure\n//     returns (uint256)\n// {\n//     uint256 SALARY_ANUAL = 100_000;\n//     return SALARY_ANUAL / (hourPerDay * daysOfWorkPerWeek * 52);\n// }\n",
  "sourcePath": "/Volumes/APPLE HDD/reactprojects/payments/contracts/Payments.sol",
  "compiler": {
    "name": "solc",
    "version": "0.8.0+commit.c7dfd78e.Emscripten.clang"
  },
  "schemaVersion": "3.4.3",
  "updatedAt": "2021-10-04T13:35:03.602Z",
  "devdoc": {
    "kind": "dev",
    "methods": {
      "allowance(address,address)": {
        "details": "See {IERC20-allowance}."
      },
      "approve(address,uint256)": {
        "details": "See {IERC20-approve}. Requirements: - `spender` cannot be the zero address."
      },
      "balanceOf(address)": {
        "details": "See {IERC20-balanceOf}."
      },
      "decimals()": {
        "details": "Returns the number of decimals used to get its user representation. For example, if `decimals` equals `2`, a balance of `505` tokens should be displayed to a user as `5.05` (`505 / 10 ** 2`). Tokens usually opt for a value of 18, imitating the relationship between Ether and Wei. This is the value {ERC20} uses, unless this function is overridden; NOTE: This information is only used for _display_ purposes: it in no way affects any of the arithmetic of the contract, including {IERC20-balanceOf} and {IERC20-transfer}."
      },
      "decreaseAllowance(address,uint256)": {
        "details": "Atomically decreases the allowance granted to `spender` by the caller. This is an alternative to {approve} that can be used as a mitigation for problems described in {IERC20-approve}. Emits an {Approval} event indicating the updated allowance. Requirements: - `spender` cannot be the zero address. - `spender` must have allowance for the caller of at least `subtractedValue`."
      },
      "increaseAllowance(address,uint256)": {
        "details": "Atomically increases the allowance granted to `spender` by the caller. This is an alternative to {approve} that can be used as a mitigation for problems described in {IERC20-approve}. Emits an {Approval} event indicating the updated allowance. Requirements: - `spender` cannot be the zero address."
      },
      "name()": {
        "details": "Returns the name of the token."
      },
      "symbol()": {
        "details": "Returns the symbol of the token, usually a shorter version of the name."
      },
      "totalSupply()": {
        "details": "See {IERC20-totalSupply}."
      },
      "transfer(address,uint256)": {
        "details": "See {IERC20-transfer}. Requirements: - `recipient` cannot be the zero address. - the caller must have a balance of at least `amount`."
      },
      "transferFrom(address,address,uint256)": {
        "details": "See {IERC20-transferFrom}. Emits an {Approval} event indicating the updated allowance. This is not required by the EIP. See the note at the beginning of {ERC20}. Requirements: - `sender` and `recipient` cannot be the zero address. - `sender` must have a balance of at least `amount`. - the caller must have allowance for ``sender``'s tokens of at least `amount`."
      }
    },
    "version": 1
  },
  "userdoc": {
    "kind": "user",
    "methods": {},
    "version": 1
  }
}